:100000000C946C030C94B3030C94B3030C94B303DF
:100010000C94B3030C94B3030C94B3030C94B30388
:100020000C94B3030C94B3030C94C91C0C949D1D45
:100030000C9445140C94B3030C94B3030C94B303C5
:100040000C94B3030C94B3030C94B3030C94B30358
:100050000C94B3030C94AB140C94B3030C94B3033F
:100060000C94B3030C94B3030C94B3030C94B30338
:100070000C94B3030C94B3030C94B3030C94B30328
:100080000C94B3030C94B3030C94B3030C94B30318
:100090000C94B3030C94B3030C94B3030C94B30308
:1000A0000C94B3030C94B3030C94B3032B0014000F
:1000B0001A000800150017002A00040016000700A7
:1000C00009000A0029001D001B0006001900050098
:1000D000E0001D01E200E300015100004D004A0074
:1000E000E7002C00000000004C00E10000000000D0
:1000F000000000002B001E021F022F0230023102FE
:10010000E1002002210226022702350029002202F6
:1001100023022F003000E100E0000100E200E300D4
:10012000010000004D004A00E7000100000000004F
:100130004C00E10000000000000000000100010090
:1001400001000100010001000100010001000100A7
:100150000100010001000100010001000100010097
:100160000100010001000100010000000100010088
:10017000010001000000000001000100000000007B
:100180000000000001000100010001000100010069
:100190000100010001000100010001000100010057
:1001A0000100010001000100010001000100010047
:1001B000010000000100010001000100000000003A
:1001C000010001000000000000000000010001002B
:1001D0000100010001000100010001000100010017
:1001E0000100010001000100010001000100010007
:1001F00001000100010001000100000001000100F8
:1002000001000100000000000100010000000000EA
:1002100000000000010001000100010001000100D8
:1002200001000100010001000100010001000100C6
:1002300001000100010001000100010001000100B6
:1002400001000000010001000100010000000000A9
:10025000010001000000000000000000010001009A
:100260000100010001000100010001000100010086
:100270000100010001000100010001000100010076
:100280000100010001000100010000000100010067
:10029000010001000000000001000100000000005A
:1002A0000000000001000100010001000100010048
:1002B0000100010001000100010001000100010036
:1002C0000100010001000100010001000100010026
:1002D0000100000001000100010001000000000019
:1002E000010001000000000000000000010001000A
:1002F00001000100010001000100010001000100F6
:1003000001000100010001000100010001000100E5
:1003100001000100010001000100000001000100D6
:1003200001000100000000000100010000000000C9
:1003300000000000010001000100010001000100B7
:1003400001000100010001000100010001000100A5
:100350000100010001000100010001000100010095
:100360000100000001000100010001000000000088
:100370000100010000000000000000000100010079
:100380000100010001000100010001000100010065
:100390000100010001000100010001000100010055
:1003A0000100010001000100010000000100010046
:1003B0000100010000000000010001000000000039
:1003C0000000000001000100010001000100010027
:1003D0000100010001000100010001000100010015
:1003E0000100010001000100010001000100010005
:1003F00001000000010001000100010000000000F8
:1004000001000100000000000000000001000100E8
:1004100001000100010001000100010001000100D4
:1004200001000100010001000100010001000100C4
:1004300001000100010001000100000001000100B5
:1004400001000100000000000100010000000000A8
:100450000000000001000100010001000100010096
:100460000100010001000100010001000100010084
:100470000100010001000100010001000100010074
:100480000100000001000100010001000000000067
:100490000100010000000000000000000100010058
:1004A0000100010001000100010001000100010044
:1004B0000100010001000100010001000100010034
:1004C0000100010001000100010000000100010025
:1004D0000100010000000000010001000000000018
:1004E0000000000001000100010001000100010006
:1004F00001000100010001000100010001000100F4
:1005000001000100010001000100010001000100E3
:1005100001000000010001000100010000000000D6
:1005200001000100000000000000000012036B0049
:100530006500790062006F006100720064000000D5
:10054000160371006D006B006200750069006C009D
:1005500064006500720000000403090409026D00D4
:10056000040100A0FA0904000001030101000921AF
:10057000110100012240000705810308000A090457
:1005800001000103010200092111010001224D00B7
:100590000705820308000A090402000103000000A5
:1005A0000921110100012236000705830308000A12
:1005B00009040300010300000009211101000122C8
:1005C000390007058403200001120110010000001A
:1005D00008EDFE606001000102000105010906A1AD
:1005E00001050719E029E715002501950875018126
:1005F00002050819012905950575019102950175F6
:100600000391010507190029F71500250195F875D3
:10061000018102C005010980A101850216010026A1
:1006200003001A81002A8300751095018100C0051E
:100630000C0901A1018503160100269C021A010084
:100640002A9C02751095018100C005010902A101D3
:100650000901A100050919012905150025019505C4
:100660007501810295017503810105010930093188
:100670001581257F95027508810609381581257F2A
:10068000950175088106050C0A38021581257F95AC
:100690000175088106C0C005010906A101050719F9
:1006A000E029E7150025019508750181029501757E
:1006B0000881010508190129059505750191029523
:1006C00001750391010507190029FF150026FF0098
:1006D000950675088100C00011241FBECFEFDAE037
:1006E000DEBFCDBF04B603FE27C0809121029091EA
:1006F0002202A0912302B09124028730904BA740A0
:10070000B04BD1F4109221021092220210922302D7
:100710001092240214BE84B7877F84BF0FB6F8946A
:10072000A8958091600088618093600010926000BD
:100730000FBEE0E0F8E3099511E0A0E0B1E0EEE5DE
:10074000F2E402C005900D92A433B107D9F722E07C
:10075000A4E3B1E001C01D92A132B207E1F70E940B
:10076000161A0C94DE200C94000090E080E00895AE
:100770000895089581E00895089581E008950C9406
:10078000BA030E94F60C2FEF84E39CE021508040D6
:100790009040E1F700C000000C94CE14FF920F933C
:1007A0001F93CF93DF938C01FC01C081D181809195
:1007B000620181113FC082818823B9F1CE010E947C
:1007C0002912F82E682FCE010E94D211BE018F2D62
:1007D0000E940305EC01B8010E94BF03882309F4BD
:1007E0004AC0B801CE010E940F07882309F443C014
:1007F000C531F0E7DF0718F5C23080E7D80708F009
:100800004BC0C115E0E7DE0789F1C130D047D1F117
:1008100081E08093360180933701C801DF91CF9149
:100820001F910F91FF900C94BD03CE010E94001206
:10083000F82ECCCFCE010E942912BE01C9CFCC33F5
:1008400080E7D80709F49AC0CD33D04709F7F801FB
:100850008281882309F4B9C0109237010E9475146F
:10086000909335018093340180E295C0F801828134
:1008700081110E94C10380E0DF91CF911F910F9100
:10088000FF900895F80182818823A9F38091E10106
:1008900081608093E101EFCFF8018281882309F420
:1008A000BCCF0E94D713811102C00E94BD130E94C9
:1008B000F41390E09093130280931202FE01E35030
:1008C000F047809112028160E231F10538F4E05284
:1008D000FF4D0C948E208091120282608093120250
:1008E000809112020E94F8130E94F60CC4CF8091EE
:1008F00012028460F3CF809112028860EFCF809162
:1009000012028061EBCF809112028062E7CF80916A
:1009100012028064E3CF809112028068DFCF809161
:1009200012028C60DBCF809112028E7FD7CF809134
:1009300012028D7FD3CF809112028B7FCFCF809117
:100940001202877FCBCF809112028F7EC7CF80911A
:1009500012028F7DC3CF809112028F7BBFCF809117
:1009600012028F77BBCF80911202837FB7CF909115
:100970001202892F97FB87F98058B0CFF801828146
:10098000882361F0109236010E947514909335010E
:100990008093340182E00E94AC0A6DCF80913601D1
:1009A00081110FC080913401909135010E94811412
:1009B000883C910530F486E20E94810986E20E941B
:1009C0005D0A82E00E94B30A56CF809137018111FF
:1009D0000FC080913401909135010E948114883CB0
:1009E000910530F487E20E94810987E20E945D0A46
:1009F00080E2E8CF0C945E070C9460070C94BC0373
:100A00000C94FE040895972F70E026E0929F600DED
:100A1000711D1124FB0194E2899FE00DF11D112449
:100A2000EE0FFF1FE455FF4F859194910895FC014F
:100A3000EE0FFF1FE45DFA4F8591949108950E9497
:100A400003050E949306811520E4920708F08FC0E9
:100A5000811540E3940708F0ECC0803E910508F052
:100A600073C0803C910508F0D0C0883A910590F49D
:100A7000853A910508F0CEC08130910509F470C027
:100A8000009709F46DC08430910508F069C090E0CA
:100A900080E008958D3B9105D0F7883A910509F4DF
:100AA00003C1893A910509F402C18A3A910509F412
:100AB00001C18B3A910509F400C18C3A910509F402
:100AC000FFC08B3B910509F4FEC08C3B910509F4F6
:100AD000FDC08D3A910509F4FCC0803B910509F4F5
:100AE000FBC08E3A910509F4FAC08F3A910509F4DA
:100AF000F9C0813B910509F4F8C0823B910509F4E6
:100B0000F7C0833B910509F4F6C0843B910509F4D5
:100B1000F5C0853B910509F4F4C0863B910509F4C5
:100B2000F3C0873B910509F4F2C0883B910509F4B5
:100B3000F1C0893B910509F4F0C08A3B910509F4A5
:100B4000EFC080E094E408958F3F910509F048F4E8
:100B5000803F910508F069C0883E910508F097CF65
:100B60000895811560E2960708F061C00895811527
:100B700073E5970770F5811522E5920708F064C0C8
:100B8000811541E5940708F05AC0811560E5960784
:100B900008F452C09C0154E0369527955A95E1F728
:100BA000922F9370282F26952695237070E2279F09
:100BB00090011124392B837041E050E0BA0102C04A
:100BC000660F771F8A95E2F7CB01822B932B9C68E7
:100BD0000895811575E5970750F4811524E592076E
:100BE00008F443C0982F8827846F906A0895811570
:100BF00046E5940708F44DC09C0130569F702115BE
:100C0000304108F044CF90620895805C91090E94C1
:100C100017050895853A910509F440C0863A910573
:100C200009F03FC082E890E40895906508959F70B0
:100C3000EECF9927906C08959F70906A0895982F31
:100C40008827816F906A0895AC014370552721E091
:100C500030E002C0220F331F4A95E2F78695869551
:100C600070E2879FC0011124B0CFAC0143705527BB
:100C700021E030E002C0220F331F4A95E2F786954B
:100C8000869540E2849FC0011124822B932B9A68A1
:100C90000895982F882788279F71B5CF81E890E421
:100CA000089583E890E4089582EE94E4089589EE2F
:100CB00094E408958AEE94E4089585EB94E408950D
:100CC00086EB94E4089583EB94E4089584EB94E434
:100CD000089587EB94E408958CEC94E408958DECEA
:100CE00094E4089583E895E408958AE895E40895E6
:100CF00082E995E4089584E995E4089581E296E413
:100D0000089583E296E4089584E296E4089585E2E6
:100D100096E4089586E296E4089587E296E40895BD
:100D20008AE296E41DCF8238910549F1B0F481330F
:100D3000910509F462C048F48932910509F456C05E
:100D40008A32910509F460C008958533910509F44C
:100D500046C08933910599F00895833E910531F19C
:100D600038F4803E910591F0823E9105B1F00895EE
:100D7000863E910521F1873E910551F1089520911C
:100D800012022370D9F080EE90E0089520911202B3
:100D900020FF14C089E390E008952091120222FF01
:100DA0000DC024FD09C083EE90E008952091120249
:100DB00022FD31C024FF02C090E080E00895209120
:100DC000120223FFFBCF24FDF7CF87EE90E00895BA
:100DD0002091120223FFEECF86EE90E0089520913D
:100DE000120225FFEBCF89E290E0089520911202D4
:100DF00025FFE4CF85E390E008952091120226FFBD
:100E0000DDCF8AE290E008952091120226FFD6CF2E
:100E100081E390E0089582EE90E0089508950F93A5
:100E20001F93CF938C01FB018281811106C0C1E029
:100E30008C2FCF911F910F910895C0914501C11141
:100E400025C00531104799F70E940E0781E0809375
:100E500045010E94751490934401809343011092C0
:100E6000380110923A011092390110923C0110920F
:100E70003B0110923E0110923D01109240011092F0
:100E80003F011092420110924101D2CF8091430163
:100E9000909144010E948114883C910540F6809114
:100EA0003801E82FF0E0EE0FFF1FE75CFE4F1183E3
:100EB00000838F5F80933801C0E0BACF0C94B803F1
:100EC0000C94B90385B7806885BF85B7806885BFF6
:100ED000A9E1B1E061E070E08D91E82FE295EF705B
:100EE000F0E041A18F709B0101C0220F8A95EAF7C3
:100EF000922F9095942391A382A1822B82A381E0CB
:100F0000AF31B80749F7A3E1B1E061E070E08D913E
:100F1000E82FE295EF70F0E041A18F709B0101C0D6
:100F2000220F8A95EAF7922F9095942391A382A19C
:100F3000822B82A381E0A931B80749F7ECE4F1E004
:100F4000A6E4B1E082E591E011921D928E179F0711
:100F5000D9F70C94FA044F925F926F927F928F921E
:100F60009F92AF92BF92CF92DF92EF92FF920F9338
:100F70001F93CF93DF9306E411E089E1C82E81E04F
:100F8000D82E2801EE24E394F12CBB24B394D20193
:100F90009D902D011E92E60189916E01E82FE29548
:100FA000EF70F0E091A18F70970101C0220F8A9538
:100FB000EAF7892F822B81A382A1822E8094882137
:100FC00082A3D0EADA95F1F763E171E090E080E086
:100FD000EB01A990BE014A2D42954F7050E0EA0105
:100FE00068A07C905A2D5F70E70102C0CC0FDD1F16
:100FF0005A95E2F7AE01462109F04FC04E2D082E5A
:1010000001C0440F0A94EAF747294C9301968630B1
:101010009105F1F681A1882181A382A1282B22A329
:101020008C91981641F0B09252010E9475149093E1
:10103000540180935301DCE44D16D1E05D0609F0C4
:10104000A6CF809152018823A1F080915301909105
:1010500054010E948114069760F0ECE4F1E0D8019D
:101060008D918D018193B1E00C341B07C1F7109273
:1010700052010E94FC0481E0DF91CF911F910F91FA
:10108000FF90EF90DF90CF90BF90AF909F908F90A8
:101090007F906F905F904F90089540E0B5CFE82F1C
:1010A000F0E0E45BFE4F80810895089590935A012B
:1010B000809359010895E0915901F0915A013097B8
:1010C00021F00190F081E02D099480E00895E091F5
:1010D0005901F0915A01309721F00280F381E02DFF
:1010E00009940895E0915901F0915A01309721F047
:1010F0000480F581E02D09940895209157013091E5
:1011000058012817390771F09093580180935701BF
:10111000E0915901F0915A01309721F00680F78152
:10112000E02D09940895209155013091560128171A
:10113000390771F09093560180935501E091590160
:10114000F0915A01309721F00084F185E02D099447
:10115000089508950C94A9080E946C140E946207D7
:101160000C943315BF92CF92DF92EF92FF920F93C0
:101170001F93CF93DF93CDB7DEB72A970FB6F894BE
:10118000DEBF0FBECDBF0E94AB078CE5C82E81E04D
:10119000D82E10E000E0B02E802F0E944F08E82EDD
:1011A000F601F1906F01F81609F45AC08091E1013F
:1011B00081FD0E94550890E080E0FE242F2D30E054
:1011C000482FB901082E02C0759567950A94E2F779
:1011D00060FF41C08E83BF8281E090E06C0102C05D
:1011E000CC0CDD1C4A95E2F72E2D30E02C213D2160
:1011F000232B09F480E088870E9475148160782F82
:101200009A8789874E815F8168858A850E94570900
:10121000F801E45AFE4F80818C2580830E94B1172B
:101220000E945B0890915B01891789F10E945B081D
:1012300080935B012A960FB6F894DEBF0FBECDBF38
:10124000DF91CF911F910F91FF90EF90DF90CF90A2
:10125000BF900C94000501968630910509F0B0CF3F
:101260000F5F1F4F0630110509F095CF8FEF89836F
:101270008A831B820E9475148160782F9D838C83E2
:1012800049815A816B818D810E945709C7CF2A9667
:101290000FB6F894DEBF0FBECDBFDF91CF911F9187
:1012A0000F91FF90EF90DF90CF90BF900895CF9374
:1012B000DF93CDB7DEB72B970FB6F894DEBF0FBE26
:1012C000CDBF4F83588769877A878B871E821D829F
:1012D00085E0FE013796DE01119601900D928A9508
:1012E000E1F749815A816B817C818D819E812B96AA
:1012F0000FB6F894DEBF0FBECDBFDF91CF910C9437
:10130000860F882309F4D8C0823871F40E945B08E4
:1013100081FDD2C089E30E94C9120E948E1389E325
:101320000E9406130C948E13833859F40E945B08B4
:1013300080FDC2C083E50E94C9120E948E1383E51E
:10134000EFCF843859F40E945B0882FDB5C087E472
:101350000E94C9120E948E1387E4E2CF9CEF980F7F
:10136000913A18F40E94C912DDCF90E2980F98309C
:1013700050F4877091E001C0990F8A95EAF7892FA0
:101380000E944813CFCF9BE5980F933070F4853AB5
:1013900031F0863A39F083E890E00C947D0881E8DA
:1013A00090E0FBCF82E890E0F8CF98E5980F953178
:1013B00008F082C0883A09F440C0893A09F440C074
:1013C0008A3A09F440C08B3A09F440C08C3A09F4D7
:1013D00040C08B3B09F440C08C3B09F440C08D3ABF
:1013E00009F440C0803B09F440C08E3A09F440C083
:1013F0008F3A09F440C0813B09F440C0823B09F4B4
:1014000040C0833B09F440C0843B09F440C0853BA5
:1014100009F440C0863B09F440C0873B09F440C052
:10142000883B09F440C0893B09F440C08A3B09F479
:1014300040C090E080E00C94930882EE90E0FBCFF7
:1014400089EE90E0F8CF8AEE90E0F5CF85EB90E062
:10145000F2CF86EB90E0EFCF83EB90E0ECCF84EB24
:1014600090E0E9CF87EB90E0E6CF8CEC90E0E3CF23
:101470008DEC90E0E0CF83E891E0DDCF8AE891E069
:10148000DACF82E991E0D7CF84E991E0D4CF81E24D
:1014900092E0D1CF83E292E0CECF84E292E0CBCF54
:1014A00085E292E0C8CF86E292E0C5CF87E292E083
:1014B000C2CF8AE292E0BFCF0895882309F44BC0DF
:1014C000823871F40E945B0881FF45C089E30E9465
:1014D000C9120E948E1389E30E9406130C948E1386
:1014E000833859F40E945B0880FF35C083E50E9471
:1014F000C9120E948E1383E5EFCF843859F40E94FD
:101500005B0882FF28C087E40E94C9120E948E13E4
:1015100087E4E2CF9CEF980F913AF0F290E2980FB7
:10152000983050F4877091E001C0990F8A95EAF7DE
:10153000892F0E944E13D2CF9BE5980F933020F451
:1015400090E080E00C947D08885A853120F490E08A
:1015500080E00C9493080895882321F00E9448139A
:101560000C948E130895882321F00E944E130C943E
:101570008E1308958F929F92AF92BF92DF92EF9257
:10158000FF920F931F93CF93DF937C01D62FC72F2A
:10159000FC01058102950F70128111110E946513E3
:1015A0000E94C212D82E882371F01123A1F080E28C
:1015B0008D0F883080F082E00E94AC120E94C2122F
:1015C00091E0D82ED926EC2FE295EF70F0E0EE50A6
:1015D000FF4D0C948E20D12CF6CF0C2F0F70C07FB6
:1015E00011F00295007F1123A9F0002359F080E249
:1015F0008D0F883010F0D11109C0802F0E94481340
:101600000E948E138D2F0E94810914C0802F0E948A
:101610005813F6CF8D2F0E945D0A002359F080E207
:101620008D0F883010F0D11124C0802F0E944E13EE
:101630000E948E13DD2009F48FC10E949F1280FD4D
:101640008BC1F70112820E9499120E941611C701E4
:101650000E94B80C0E949912DF91CF911F910F91B7
:10166000FF90EF90DF90BF90AF909F908F900C9481
:101670003711802F0E945E13DBCFFC2FFF70BF2E2F
:10168000C07FC03219F0B29480EFB822DD2369F038
:10169000D13029F1112369F1002359F0F701858137
:1016A00080FFB0CF8F70858304C0112361F00111DA
:1016B00004C08B2D0E94AC0ABDCF8B2D0130D1F719
:1016C0000E947813B7CF011106C00E947B138B2DA7
:1016D0000E94B30AAFCF013009F4ACCFF6CF11238B
:1016E00021F0063008F0A6CFE4CF053008F0A2CFF5
:1016F000EECF002361F38D2F0E945D0A9BCF8C2FCC
:1017000086958695837069F0813009F093CF8D2F8F
:101710009C2F9370111102C090E080E00E9493080A
:1017200089CF8D2F9C2F9370111102C090E080E023
:101730000E947D087FCF8D2F112329F00E94BF16B4
:101740000E94A61777CF0E942717FACF8C2F83709D
:1017500009F047C011116ECF2D2F229526952770C5
:10176000220F220F6D2F6F70862E912CB12CA12C81
:10177000022E04C0880C991CAA1CBB1C0A94D2F728
:1017800060E070E0CB01D4FF0FC06FE070E080E05C
:1017900090E004C0660F771F881F991F2A95D2F723
:1017A0006095709580959095C695C695C370C2302A
:1017B00051F080F4682979298A299B29C13071F078
:1017C0000E94BF1037CF682979298A299B290E9456
:1017D000DB1030CF0E94BF10C501B4010E94A310DE
:1017E00029CF8695112311F08C2F8170882309F45D
:1017F00021CF2D2F229526952770220F220F6D2F96
:101800006F70862E912CB12CA12C022E04C0880C56
:10181000991CAA1CBB1C0A94D2F760E070E0CB01B3
:10182000D4FF0FC06FE070E080E090E004C0660F6E
:10183000771F881F991F2A95D2F76095709580951C
:101840009095C695C695C370C23051F080F4682952
:1018500079298A299B29C13071F00E949911EACE19
:10186000682979298A299B290E94B511E3CE0E9413
:101870009911C501B4010E947D11DCCEE0E2ED0FAB
:10188000E53108F04DC0F0E0EE5FFE4D0C948E2087
:10189000DF708C2F8F71112321F00E9416118D2F74
:1018A00009CF0E9437118D2F13CF112341F005303E
:1018B00008F0C0CE8C2F8F710E945C11BBCE063019
:1018C00008F0B8CEF7CF8C2F8F71112339F00E941A
:1018D0001611B0CE8C2F8F711123C9F30E943711CE
:1018E000A9CE112329F08C2F8F710E940111A2CE55
:1018F0000E94F7109FCE112349F0CF718C2F0E94C8
:10190000161163E08C2F0E94A31294CE81E00E94F6
:10191000AC12023008F48ECE82E00E94AC128ACE65
:10192000112329F001116ECE8C2F8F71D0CF0111B0
:10193000E2CE8C2F8F71D2CF4C2F4F706D2FC701FD
:101940000E94B5030E94201075CE4C2F4F706D2F52
:10195000C7010E9402056ECEDF91CF911F910F91BA
:10196000FF90EF90DF90BF90AF909F908F90089581
:101970000F931F93CF93DF93EC018B819C81892B75
:1019800029F08881998189238F3F29F4DF91CF91B4
:101990001F910F910895CE010E94CE038823B1F3C9
:1019A000688179818A810E9475128C010E94D1110F
:1019B0000E949810B801CE01DF91CF911F910F9135
:1019C0000C94BA0A0E9465130E9475130E943A1380
:1019D0000E948E130E9452180E94A61790E080E089
:1019E0000E947D0890E080E00C9493080E945513BB
:1019F0000C94E20C0E946B12E92FE295EF70E2501A
:101A0000EE3070F4F0E0E95EFE4D0C948E20803FE5
:101A100019F020F4803E20F481E00895843FE1F342
:101A200080E00895803EC0F3813FD1F7F5CF93FB6E
:101A3000882780F90895CF93DF9300D000D00F92CC
:101A4000CDB7DEB70F900F900F900F900F90DF91F2
:101A5000CF910895CF93DF9300D000D000D0CDB7C1
:101A6000DEB726960FB6F894DEBF0FBECDBFDF916E
:101A7000CF9108951F93CF93DF93C091630116E038
:101A8000809164018C1304C0DF91CF911F91089560
:101A9000D0E01C9FF0011D9FF00D1124EB59FE4F6B
:101AA0004081518162817381848195810E942A0DD8
:101AB0002196C770E5CF40919501509196016091B4
:101AC0009701709198018091990190919A010C94DD
:101AD0002A0D1F93CF93DF9380919A01807FC1F4E9
:101AE000809197018823A1F080916301C0916401E6
:101AF00060919501709196014091980150919901E2
:101B0000D62FD723DA01A095B09516E0C81304C0EC
:101B1000DF91CF911F91089590E04115510511F08B
:101B2000DF3F31F401968770F1CF2A0F3B1F17C0BA
:101B3000189FF001199FF00D1124EB59FE4F2181E0
:101B40002713F0CF20812613EDCF22812111EACF78
:101B5000238134812417350740F3241B350B283C9F
:101B6000310500F720919A012F70206120939A018E
:101B700026E0289FF001299FF00D1124E659FE4F21
:101B800080818F708061808385E991E00E94B80C2C
:101B9000DF91CF911F910C943A0DBF92CF92DF92BB
:101BA000EF92FF920F931F93CF93DF93CDB7DEB7E2
:101BB00061970FB6F894DEBF0FBECDBF8C0185E0F4
:101BC000F801DE011D9601900D928A95E1F7D8018A
:101BD0004C9111965C9111971296EC90129780910E
:101BE000980190919901009709F47FC12091950186
:101BF00030919601622F63236F3F09F476C11396EB
:101C0000CD90DC90B0909701BB2009F413C1C816A9
:101C1000D906D0F1F601E81BF90BCF01FF24F394AC
:101C2000883C910508F0F12C80919A01982F907FC3
:101C3000FF2009F4B6C091117FC0FE2C351329C0D6
:101C4000241327C0E11025C08F70806180939A0112
:101C50000E945B0D85E991E00E94B80C80919A0189
:101C6000D80115968C938F2D61960FB6F894DEBF30
:101C70000FBECDBFDF91CF911F910F91FF90EF90DD
:101C8000DF90CF90BF900895809590958C0D9D1D0D
:101C9000C5CFCD2829F0852F84238F3F09F033C18C
:101CA00080E0B82FB170DB2E80FF3CC080916301D3
:101CB0002091640136E0821315C04D875E878D85C3
:101CC0009E850E946B12292F22952F702230F0F0F2
:101CD000243018F59F70F1F0F8019581907FD1F4D0
:101CE000D12C1EC090E0389FF001399FF00D1124D7
:101CF000EB59FE4F6181651306C06081641303C018
:101D00006281E6120FC001968770D5CF9F7011F0E7
:101D1000882331F3805E883018F3C8010E94B80C24
:101D2000FD2CA1CFEE2009F49ECF80919A01816015
:101D300080939A01F12C97CF351306C0241304C069
:101D4000D801EE2009F49CC04D875E878D859E8565
:101D50000E94FA0C882309F4D2C0EE2009F4CFC007
:101D600080919A01803270F0209195013091960116
:101D700038872F831986DB86CA868C87CE01079623
:101D80000E94B80C86E0F801A5E9B1E001900D923F
:101D90008A95E1F70E94690D0E945B0DFF24F39480
:101DA00062CF911115C07C2DD98AC88A6E2D898980
:101DB0000E941B0D85E991E00E94B80C86E0E5E9E0
:101DC000F1E0DF011D928A95E9F70E945B0D4BCF90
:101DD000351312C0241310C0E1100EC0F801858322
:101DE000C8010E94B80CE5E9F1E086E0DF011D9230
:101DF0008A95E9F7FB2C37CF4D875E878D859E85C9
:101E00000E94FA0C882309F47AC0EE2009F477C006
:101E100080919A01803208F4B5CF209195013091DC
:101E200096013A8329831B82DD82CC828E83CE0188
:101E30000196A6CFC816D90688F1F601E81BF90B62
:101E4000CF01F12C883C910508F047C0FE2CEE2014
:101E500009F455C0351330C024132EC080919A0167
:101E600080FD21C0982F907FF1F0D80115968C93BA
:101E70001597903F39F0982F907F905F8F70892B46
:101E800015968C93C8010E94B80C86E0F801A5E96C
:101E9000B1E001900D928A95E1F797CF80959095EA
:101EA0008C0D9D1DCECF86E0F801A5E9B1E0019033
:101EB0000D928A95E1F7D7CE4D875E878D859E85F9
:101EC0000E94FA0C81115ECF80919A01816080930B
:101ED0009A01C8010E94B80CC6CE7C2DD98AC88A46
:101EE0006E2D89890E941B0D69CFEE2041F04D8730
:101EF0005E878D859E850E94FA0C811143CFC801B3
:101F00000E94B80C4BCF81E08E25CBCE1F93CF9390
:101F1000DF93CDB7DEB72C970FB6F894DEBF0FBEB8
:101F2000CDBF4F83588769877A878B879C87CE017F
:101F300007960E94CD0D882369F08A859B85892BA1
:101F400039F04F815885842F85238F3F09F071C068
:101F500016E05FC086E0FE013796DE011196019023
:101F60000D928A95E1F78A859B85892B89F388856F
:101F70009F8189238F3F61F32091640130E0C90183
:101F8000019687709927409163014817190671F4EB
:101F90000E94F60C109264011092630186E0E5E95C
:101FA000F1E0DF011D928A95E9F7D2CF96E0929F8A
:101FB000D001939FB00D1124AB59BE4FFE01319655
:101FC00001900D929A95E1F7809364010E943A0D79
:101FD000BFCF819FC00111248B599E4F0E94CD0D10
:101FE0008823E9F0E09163011E9FF0011124EB5971
:101FF000FE4F4081518162817381848195810E946D
:102000002A0D8091630190E0019687709927809353
:10201000630180916301909164018913DACF2C965A
:102020000FB6F894DEBF0FBECDBFDF91CF911F91E9
:10203000089569857A858B859C850E942A0D88CFB5
:10204000EF92FF920F931F93CF93DF938C01892B15
:1020500081F0F12CEE24E394E8012196F8018491BB
:10206000843770F4843008F05FC08130B1F0823082
:10207000A1F1DF91CF911F910F91FF90EF90089503
:10208000853709F44CC008F43DC09CE7980F9037A1
:1020900080F78F770E945D0A49C00E5F1F4FFE01D7
:1020A000849190E2980F983060F48770FE2D01C003
:1020B000FF0F8A95EAF78F2F0E9468130E948E13F4
:1020C00002C00E9481098F2D815030F2EFE9FFE0BC
:1020D0003197F1F700C00000F7CF0E5F1F4FFE01F0
:1020E000849190E2980F983050F48770FE2D01C0D3
:1020F000FF0F8A95EAF78F2F0E946E13DFCF0E94A1
:102100005D0AE1CF0E5F1F4FFE01C491C150D8F2AE
:102110008FE99FE00197F1F700C00000F7CF0E5F55
:102120001F4FFE01F490CFCF0E9481098E01CBCFCB
:1021300008956093B8017093B9018093BA019093A8
:10214000BB010C94E20C0F931F930091B801109106
:10215000B9012091BA013091BB01DC01CB01802B88
:10216000912BA22BB32B8093B8019093B901A0932C
:10217000BA01B093BB011F910F910C94E20C0F9325
:102180001F930091B8011091B9012091BA013091CB
:10219000BB01DC01CB0180239123A223B3238093D5
:1021A000B8019093B901A093BA01B093BB011F91FC
:1021B0000F910C94E20C0F931F930091B8011091B2
:1021C000B9012091BA013091BB01DC01CB0180271C
:1021D0009127A227B3278093B8019093B901A093C8
:1021E000BA01B093BB011F910F910C94E20C1092B5
:1021F000B4011092B5011092B6011092B7010C947F
:10220000E20C41E050E060E070E004C0440F551F74
:10221000661F771F8A95D2F74093B4015093B5019A
:102220006093B6017093B7010C94E20C41E050E06A
:1022300060E070E004C0440F551F661F771F8A9549
:10224000D2F78091B4019091B501A091B601B091FF
:10225000B701842B952BA62BB72B8093B4019093B9
:10226000B501A093B601B093B7010C94E20C41E024
:1022700050E060E070E004C0440F551F661F771FF8
:102280008A95D2F740955095609570958091B401EC
:102290009091B501A091B601B091B7018423952327
:1022A000A623B7238093B4019093B501A093B60100
:1022B000B093B7010C94E20C41E050E060E070E0B4
:1022C00004C0440F551F661F771F8A95D2F780916F
:1022D000B4019091B501A091B601B091B7018427E6
:1022E0009527A627B7278093B4019093B501A093B3
:1022F000B601B093B7010C94E20C0F931F930091B9
:10230000B4011091B5012091B6013091B701DC0103
:10231000CB01802B912BA22BB32B8093B4019093F4
:10232000B501A093B601B093B7011F910F910C9422
:10233000E20C0F931F930091B4011091B50120910D
:10234000B6013091B701DC01CB0180239123A22398
:10235000B3238093B4019093B501A093B601B093D9
:10236000B7011F910F910C94E20C0F931F930091F2
:10237000B4011091B5012091B6013091B701DC0193
:10238000CB0180279127A227B3278093B401909394
:10239000B501A093B601B093B7011F910F910C94B2
:1023A000E20C0895E92FEE0FE90FEE0F8E0F982F34
:1023B000977041E001C0440F9A95EAF7869586959B
:1023C000869595E0899FF0011124E556FE4F30E097
:1023D00020E070E05191DF011197CB01022E02C085
:1023E000969587950A94E2F78170819585278423D5
:1023F00085278C932F5F3F4F2530310559F708957E
:10240000E92FEE0FE90FEE0F8E0F982F977086953C
:102410008695869525E0829FF0011124E556FE4FB2
:1024200050E040E080E0219130E0092E02C0369576
:1024300027950A94E2F721703327042E01C0220F5A
:102440000A94EAF7822B4F5F5F4F4530510559F7E9
:102450000895BF92CF92DF92EF92FF920F931F9356
:10246000CF93DF938C01C090B401D090B501E09080
:10247000B601F090B7018091B8019091B901A09197
:10248000BA01B091BB01C82AD92AEA2AFB2ACFE1B6
:10249000D0E0BC2ED701C6010C2E04C0B695A7957E
:1024A000979587950A94D2F780FD0EC0219788F7FB
:1024B000B12C8B2DDF91CF911F910F91FF90EF9059
:1024C000DF90CF90BF900895B8018C2F0E941F0518
:1024D000019761F3EECFCF93DF93EC010E942912B5
:1024E000BE01DF91CF910C941F051F93CF93DF9313
:1024F000EB0190916201992331F0CB01DF91CF91F3
:102500001F910C946B12882379F0CB010E94291241
:10251000182F682FCE010E94D211BE01812FDF91AA
:10252000CF911F910C941F05CB010E940012182F10
:10253000F4CF8091BC01859585958595089580910E
:10254000BC018770089598E0899F90011124622B47
:102550006093BC010C9416119091BC018095892365
:102560008093BC01282F277061F4282F082E000CBF
:10257000330B9217130629F08595859585950C9454
:10258000371108959091BC01977081E009F480E0C3
:102590000895909112019923E1F09091120297FF12
:1025A00018C0E82FE695E695E695EF3139F12091D0
:1025B000000130910101E20FF32FF11D877021E03E
:1025C00030E001C0220F8A95EAF78181822B818356
:1025D00008952091000130910101F90132969FEF99
:1025E00040E05191851751F09F3F19F4511101C0FE
:1025F000942F4F5F4E31A9F79F3F09F40895290F9B
:10260000311D97FD3A95F901828308959091120149
:102610009923F1F09091120297FF1AC0E82FE695E6
:10262000E695E695EF3129F1209100013091010105
:10263000E20FF32FF11D282F277081E090E001C0F9
:10264000880F2A95EAF780959181892381830895DF
:102650002091000130910101F9013296205E3F4F37
:102660009191891303C0DF0111971C92E217F307C0
:10267000B9F7089581E090E0E0910001F091010147
:10268000E80FF91F1082019680329105A9F708958D
:102690009091E001892B8093E001089580959091BD
:1026A000E00198239093E00108951092E0010895CD
:1026B0009091DF01892B8093DF010895809590919F
:1026C000DF0198239093DF0108951092DF010895B0
:1026D0009091DE01892B8093DE0108958095909181
:1026E000DE0198239093DE0108951092DE01089593
:1026F0008093BD0108951092BD01089520910001BD
:1027000030910101F9013196205E3F4F80E09191B7
:1027100091118F5FE217F307D1F70895E09100015F
:10272000F09101018091E0018083E0910001F0913E
:10273000010180819091DF01892B8083E09100016C
:10274000F091010180819091DE01892B808390912D
:10275000BD01992361F0E0910001F09101018081B8
:10276000892B80830E947E1381111092BD0180917C
:102770000001909101010C9467086DEE7EEF90E0EE
:1027800080E00E94C82060E082E090E00E94B620D5
:1027900060E083E090E00E94B62060E084E090E09A
:1027A0000E94B62060E085E090E00C94B62090E0B6
:1027B00080E00E94B02021E08D3E9E4F09F020E095
:1027C000822F089582E090E00C94A820682F82E088
:1027D00090E00C94B62083E090E00C94A820682F41
:1027E00083E090E00C94B62084E090E00C94A82064
:1027F000682F84E090E00C94B62080911802843019
:1028000039F11092E20188E190E020E40FB6F894EB
:10281000A895809360000FBE2093600080E00E9426
:10282000000583B7817F846083BF83B7816083BFE6
:102830007894889583B78E7F83BF0FB6F894A89558
:1028400080916000886180936000109260000FBEEC
:10285000089508950895CF930E9429140E94AB070C
:102860000E942A14C0E08C2F0E944F08811105C0DD
:10287000CF5FC630C1F7CF91089581E0FCCF0E94B1
:10288000F60C0E945B080C9400051F921FB61F9265
:1028900011248F939F93AF93BF938091E201811195
:1028A00013C080910E0290910F02A0911002B0917E
:1028B00011024196A11DB11D80930E0290930F024B
:1028C000A0931002B0931102BF91AF919F918F918D
:1028D0001F901FBE1F90189582E084BD93E095BDA8
:1028E0009AEF97BD80936E0008952FB7F89480916A
:1028F0000E0290910F02A0911002B09111022FBF11
:102900000895CF92DF92EF92FF920F931F932FB70C
:10291000F89440910E0250910F0260911002709154
:1029200011022FBF6A017B01EE24FF248C0130E0ED
:1029300020E0C016D106E206F30650F0481B590B02
:10294000CA011F910F91FF90EF90DF90CF900895F3
:1029500041505109F3CF1F921FB61F9211248F933C
:102960009F93AF93BF9380910E0290910F02A0911D
:102970001002B09111020196A11DB11D80930E02AB
:1029800090930F02A0931002B0931102BF91AF91E8
:102990009F918F911F901FBE1F9018950E944E1CF3
:1029A000F8942FEF87EA91E6215080409040E1F7BC
:1029B00000C0000087E090EBDC018093210290933F
:1029C0002202A0932302B093240288E19CE00FB678
:1029D000F894A895809360000FBE90936000FFCF9D
:1029E000CF92DF92EF92FF920F931F93CF93C0E0AD
:1029F000E82EF12C8C2F0E944F0810E000E0C82E2A
:102A0000D12CC601002E02C0959587950A94E2F755
:102A100080FD11C00F5F1F4F0630110591F7CF5F8A
:102A2000C63041F780E0CF911F910F91FF90EF905A
:102A3000DF90CF900895602F7C2F80E00E940305E7
:102A4000E816F90639F781E0EECFCF93C82F8CE274
:102A50000E94F014882321F08C2FCF910C94F01455
:102A600080E0CF910895CF930E94D713811102C0C7
:102A70000E94BD13C5E608C00E94AB078FE39CE926
:102A80000197F1F700C00000C150B1F789E20E9440
:102A900025158111EFC08AE20E94251581110E943F
:102AA000BD1385E00E94251581110E94CE140E945D
:102AB000E2138093E10187E00E942515882371F0DD
:102AC0008BE10E942515882309F4B1C09091E101A2
:102AD000892F8D7F91FF82608093E1018091E101D8
:102AE0000E94E6130E94F41390E0909313028093E7
:102AF000120280EE0E942515882341F09091120267
:102B0000892F8E7F90FF81608093120289E30E945B
:102B10002515882341F090911202892F8D7F91FF16
:102B200082608093120282EE0E942515882341F074
:102B300090911202892F8B7F92FF84608093120202
:102B400086EE0E942515882341F090911202892F6C
:102B5000877F93FF88608093120283EE0E94251581
:102B6000882341F090911202892F8F7E94FF80611B
:102B70008093120285E30E942515882341F09091ED
:102B80001202892F8F7D95FF80628093120281E36C
:102B90000E942515882341F090911202892F8F7B86
:102BA00096FF80648093120281E10E94251588239C
:102BB00041F090911202892F97FB87F980588093FA
:102BC0001202809112020E94F81387E20E942515DA
:102BD000C82F8EE10E9425158111C2608FE10E94ED
:102BE00025158111C46080E20E9425158111C860FD
:102BF00081E20E9425158111C06182E20E942515A3
:102C00008111C06283E20E9425158111C06484E2B3
:102C10000E942515882341F1C0688C2F0E94EF1374
:102C20006C2F70E090E080E0CF910C9499108EE0D2
:102C30000E942515882339F09091E101892F8B7F1F
:102C400092FF846049CF80E10E9425159091E101B7
:102C5000882329F0892F877F93FF88603DCF892FB4
:102C60008E7F90FF816038CFC111D7CF0E94EB13C8
:102C7000682FD7CFCF9108958091E50180FF12C0D2
:102C80006091050185E0689FB001112475956795F5
:102C90007595679560387105A8F561157105A1F105
:102CA000862F089581FF09C06091050185E0689F26
:102CB000B001112475956795EDCF6091050182FDF6
:102CC0000AC08091E6018823D1F0909104016091BF
:102CD0000501891728F085E0689FB0011124DACF3B
:102CE000869FB001112485E0869F9001879F300D5B
:102CF0001124692F70E0C9010E947A20CBCF65E0D2
:102D000070E0CECF8FE7089581E008958091E501CE
:102D100080FF0CC06091030170E075956795759513
:102D200067956115710549F1862F089581FF06C0E9
:102D30006091030170E075956795F3CF6091030191
:102D400082FD0BC09091E6019923A1F060910201F0
:102D500080910301961738F0682F70E06038710594
:102D600000F38FE70895899FC001112470E00E944D
:102D70007A20F4CF61E070E0D7CF81E00895803F02
:102D800031F40E943C1681958093E9010895813FBA
:102D900019F40E943C16F8CF823F31F40E943C1691
:102DA00081958093E8010895833F19F40E943C16B1
:102DB000F8CF893F29F40E9486168093EA0108958E
:102DC0008A3F21F40E9486168195F7CF8B3F31F41C
:102DD0000E94861681958093EB0108958C3F19F42B
:102DE0000E948616F8CF843F31F48091E70181601C
:102DF0008093E7010895853F21F48091E701826087
:102E0000F7CF863F21F48091E7018460F1CF873FBF
:102E100021F48091E7018860EBCF883F21F4809115
:102E2000E7018061E5CF8D3F31F48091E50181605C
:102E30008093E50108958E3F21F48091E501826041
:102E4000F7CF8F3FB9F78091E5018460F1CF909182
:102E5000E801803F41F48091E90187FD1092E9018A
:102E6000992371F00895813F29F48091E9011816A2
:102E7000ACF3F6CF823F81F497FFF2CF1092E801D6
:102E80008091E9019091EA01892B9091EB01892BC6
:102E900049F71092E6010895833F19F4191674F367
:102EA000DFCF893F39F48091EA011816CCF61092F1
:102EB000EA01D6CF8A3F29F48091EA0187FFD0CF7B
:102EC000F6CF8B3F39F48091EB0187FFC9CF109289
:102ED000EB01C6CF8C3F29F48091EB011816BCF3AF
:102EE000BFCF843F31F48091E7018E7F8093E7016B
:102EF000B7CF853F21F48091E7018D7FF7CF863FE3
:102F000021F48091E7018B7FF1CF873F21F48091FD
:102F1000E701877FEBCF883F21F48091E7018F7E27
:102F2000E5CF8D3F31F48091E5018E7F8093E501FF
:102F300097CF8E3F21F48091E5018D7FF7CF8F3FB2
:102F400009F08ECF8091E5018B7FF0CF87EE91E085
:102F50000E9472080E9475149093E4018093E3012B
:102F600008951F93CF93DF938091E3019091E40143
:102F70000E948114AC019091E6012091060130E09D
:102F8000911106C0209107018AE0289F9001112429
:102F90004217530778F02091E801C091E901D091E0
:102FA000EA011091EB01211109C08C2F8D2B812B8F
:102FB00009F074C0DF91CF911F9108959F3F19F0E0
:102FC0009F5F9093E601121624F40E943C168093B2
:102FD000E8018091E80187FF05C00E943C168195B9
:102FE0008093E8011C1624F40E943C168093E901AA
:102FF0008091E90187FF05C00E943C16819580936E
:10300000E9016091E801662331F1C091E901CC2327
:1030100011F1062E000C770B880B990B0E94811F73
:1030200023E333E343E35FE30E94E51F0E94491F6C
:103030006093E8016C2FCC0F770B880B990B0E94E3
:10304000811F23E333E343E35FE30E94E51F0E9414
:10305000491F6093E9011D1624F40E94861680938F
:10306000EA018091EA0187FF05C00E9486168195DA
:103070008093EA01111624F40E9486168093EB01D6
:103080008091EB0187FF05C00E9486168195809391
:10309000EB01DF91CF911F910C94A6179F3F09F090
:1030A0008FCFA0CF85E0E7EEF1E0DF011D928A959A
:1030B000E9F71092E6011092E501089580910C0263
:1030C0000895CF93DF9300D00F92CDB7DEB79C0168
:1030D00080911802843019F593E099833B832A8309
:1030E0009093E9008FEF9091E800815095FD06C024
:1030F00095ED9A95F1F700008111F5CF8091E800E8
:1031000085FF0DC050E040E063E070E0CE01019625
:103110000E94BE1A8091E8008E778093E8000F909D
:103120000F900F90DF91CF910895CF93DF9300D050
:103130000F92CDB7DEB720911802243031F522E08E
:103140002983805891099B838A8383E08093E900D7
:103150008FEF9091E800815095FD06C095ED9A950E
:10316000F1F700008111F5CF8091E80085FF0DC0D7
:1031700050E040E063E070E0CE0101960E94BE1A8C
:103180008091E8008E778093E8000F900F900F9069
:10319000DF91CF9108959C01809118028430F9F459
:1031A00082E08093E9009FEF8091E800915085FDD7
:1031B00006C085ED8A95F1F700009111F5CF809159
:1031C000E80085FF0CC050E040E065E070E0C90118
:1031D0000E94BE1A8091E8008E778093E8000895DF
:1031E000CF93DF93EC01809118028430F1F4909139
:1031F00012019923E9F09091120297FF19C0809370
:10320000E9008FEF9091E800815095FD06C095E1AF
:103210009A95F1F700008111F5CF8091E80050E018
:1032200040E060E270E085FD1AC0DF91CF91089523
:1032300081E08093E9008FEF9091E800815095FD47
:1032400006C095ED9A95F1F700008111F5CF8091B8
:10325000E80085FFEACF50E040E068E070E0CE0192
:103260000E94BE1A8091E8008E778093E80080E289
:10327000FE01ACEEB1E001900D928A95E1F7D5CF59
:1032800080911702811109C00E944E1C0E94AB1C44
:103290008091E20084608093E2000895109217020A
:1032A0000895089508950C943F1442E061EC81E084
:1032B0000E94CA1B42E061EC82E00E94CA1B42E00D
:1032C00061EC83E00E94CA1B42E261EC84E00C9452
:1032D000CA1B80911A02833009F455C030F4813042
:1032E00071F1823009F491C008958A3009F47DC0EB
:1032F0008B3009F463C0893009F044C08091190211
:10330000813209F03FC080911D0290911E0200970A
:1033100011F00397B9F58091E800877F8093E8006A
:103320008091E80082FF2AC08091F10080930C0216
:103330008091E8008B778093E8000C94FE1B8091CD
:103340001902813AF9F48091E800877F8093E800C0
:1033500080911D0290911E02892B61F460E28CEE37
:1033600091E070E00E940D1B8091E8008B778093C4
:10337000E800089560E090E080E0F3CF80911802CB
:103380008111CECF089580911902813AD9F78091A9
:103390001D0290911E02892BA9F78091E800877F7A
:1033A0008093E8008091E80080FFFCCF80911201BB
:1033B0008093F1008091E8008E77BDCF8091190253
:1033C000813201F780911D0290911E02892BD1F666
:1033D0008091E800877F8093E8000E94FE1B809127
:1033E0001B02809312010C94F60C80911902813219
:1033F00049F68091E800877F8093E8000E94FE1BD9
:1034000080911C0280930D02089580911902813AE7
:1034100009F0B8CF8091E800877F8093E800809121
:10342000E80080FFFCCF80910D02C2CF84B7877F78
:1034300084BF0FB6F894A89580916000886180934E
:103440006000109260000FBE80E8809361001092CF
:1034500061000E94AA080E944E1C0E94AB1C809131
:10346000E20084608093E20078940E942E1F0E9404
:10347000AC0888E091E00E945608809118028530DF
:1034800019F00E94B208F9CF0E94FD138091160234
:10349000882399F30E942B14882379F30E94A81A99
:1034A000ECCF292F33272330310521F168F4213067
:1034B000310509F443C02230310509F444C090E0DD
:1034C00080E030E020E026C02132310551F1223287
:1034D0003105A9F7643098F770E0FB01EE0FFF1F8C
:1034E000ED5DFE4F20813181615E7E4FFB01808169
:1034F00090E010C099278130910581F0009729F064
:103500000297E9F6ECE2F5E002C0E8E5F5E0849127
:1035100090E09F01FA01318320830895E0E4F5E013
:10352000F6CF643060F6E62FF0E0EE0FFF1FE55DAA
:10353000FE4F2081318189E090E0ECCF82E190E084
:1035400029EC35E0E7CF8DE690E02CE535E0E2CFE1
:1035500080E189BD82E189BD09B400FEFDCF809183
:10356000D8008F7D8093D8008091E00082608093A6
:10357000E0008091E00081FDFCCF0895AF92BF9202
:10358000CF92DF92FF920F931F93CF93DF936C0143
:10359000EB018A010E941D1CF82E811123C0011528
:1035A000110539F0F80180819181C81BD90BC80E33
:1035B000D91EB12CA12C2097A9F08091E80085FD9F
:1035C00022C08091E8008E778093E80001151105F4
:1035D000A1F0F80180819181A80EB91EB182A0826C
:1035E00085E0F82E8F2DDF91CF911F910F91FF90E5
:1035F000DF90CF90BF90AF9008950E941D1C88234C
:10360000D1F2F82EEFCFF60181916F018093F10096
:103610002197FFEFAF1ABF0ACECFFC0180911F02A6
:103620009091200286179707A0F06115710529F483
:103630009091E8009E779093E80090E06115710505
:1036400051F4911108C08091E80082FF34C080E0FD
:103650000895BC01F2CF809118028823C1F1853012
:10366000C1F18091E80083FD30C08091E80082FDC7
:10367000EACF8091E80080FFE1CF8091F3002091B4
:10368000F200382F6115710519F02830310558F016
:1036900091E02830310509F090E02091E8002E7784
:1036A0002093E800CBCF81918093F10061507109A4
:1036B0002F5F3F4FE7CF80911802882341F085307C
:1036C00041F08091E80083FFBECF81E0089582E061
:1036D000089583E00895FC0180911F0290912002DB
:1036E00086179707A0F06115710529F48091E8000D
:1036F0008E778093E80090E06115710551F4911187
:1037000008C08091E80082FF35C080E00895BC01C8
:10371000F2CF809118028823C9F18530C9F18091D8
:10372000E80083FD31C08091E80082FDEACF8091FE
:10373000E80080FFE1CF8091F3002091F200382F64
:103740006115710519F02830310558F091E02830E5
:10375000310509F090E08091E8008E778093E800D1
:10376000CBCF84918093F1003196615071092F5F26
:103770003F4FE6CF80911802882341F0853041F019
:103780008091E80083FFBDCF81E0089582E0089535
:1037900083E00895982F973028F08F708093E90088
:1037A00081E008959093E900242F762F50E0981738
:1037B00031F07091EC002091ED005091F00021FD6E
:1037C00002C09F5FE8CF3091EB003E7F3093EB006B
:1037D0003091ED003D7F3093ED003091EB00316092
:1037E0003093EB007093EC002093ED005093F000C9
:1037F0002091EE0027FDE5CF80E008958091190229
:1038000087FF13C08091E80082FF06C08091E80026
:103810008B778093E80004C0809118028111F2CF69
:103820000895809118028823D9F38091E80080FFE1
:10383000F8CF8091E8008E77ECCF2091E4003091B2
:10384000E50095E6A9012091EC00822F817020FF10
:1038500006C08091E80080FF06C080E008952091B6
:10386000E80022FD1AC080911802882389F0853073
:1038700089F08091EB0085FD0FC02091E40030912C
:10388000E50042175307F9F29150E1F684E00895FC
:1038900082E0089583E0089581E008950E94BC1CB1
:1038A0000E94C41CE0EEF0E0808181608083E8ED3E
:1038B000F0E080818F77808319BCA7EDB0E08C9118
:1038C0008E7F8C9380818F7E808310921702089563
:1038D0000F931F93CF93DF930E94BC1C0E94C41CC4
:1038E000C8EDD0E088818F7788838881806888835D
:1038F00088818F7D888319BC10921802109214025F
:10390000109216021092150200EE10E0F80180816C
:103910008B7F808388818160888342E060E080E0E3
:103920000E94CA1BE1EEF0E080818E7F8083E2EE90
:10393000F0E0808181608083808188608083F801ED
:1039400080818E7F8083888180618883DF91CF91A1
:103950001F910F910895E8EDF0E080818F7E8083C4
:10396000E7EDF0E080818160808384E082BF81E0C8
:10397000809317020C94681CE8EDF0E080818E7F44
:1039800080831092E20008951092DA001092E10014
:1039900008951F920F920FB60F9211242F933F9309
:1039A0004F935F936F937F938F939F93AF93BF9347
:1039B000EF93FF938091E10082FF0BC08091E200C2
:1039C00082FF07C08091E1008B7F8093E1000E941D
:1039D0002D1F8091DA0080FF19C08091D80080FFF0
:1039E00015C08091DA008E7F8093DA008091D90033
:1039F00080FF96C080E189BD82E189BD09B400FEE7
:103A0000FDCF81E0809318020E9440198091E1006F
:103A100080FF19C08091E20080FF15C08091E20014
:103A20008E7F8093E2008091E20080618093E200CB
:103A30008091D80080628093D80019BC85E0809383
:103A400018020E9452198091E10084FF2BC08091DE
:103A5000E20084FF27C080E189BD82E189BD89B58C
:103A6000982F917080FFFBCF8091D8008F7D80933D
:103A7000D8008091E1008F7E8093E1008091E20088
:103A80008F7E8093E2008091E20081608093E2006B
:103A900080911402882309F449C084E080931802BD
:103AA0000E9453198091E10083FF29C08091E200B8
:103AB00083FF25C08091E100877F8093E10082E051
:103AC00080931802109214028091E1008E7F8093FF
:103AD000E1008091E2008E7F8093E2008091E2001D
:103AE00080618093E20042E060E080E00E94CA1BB7
:103AF0008091F00088608093F0000E945119FF913E
:103B0000EF91BF91AF919F918F917F916F915F9155
:103B10004F913F912F910F900FBE0F901F901895CE
:103B200019BC109218020E944E1970CF8091E300C8
:103B300087FD93E090931802B3CF1F920F920FB6B8
:103B40000F9211242F933F934F935F936F937F9323
:103B50008F939F93AF93BF93CF93DF93EF93FF9395
:103B6000D091E900DF708091EC00C82FC17080FD1A
:103B7000C0E81092E9008091F000877F8093F00008
:103B800078940E94E11D1092E9008091F000886015
:103B90008093F000CD2BCF70C093E900FF91EF919F
:103BA000DF91CF91BF91AF919F918F917F916F9155
:103BB0005F914F913F912F910F900FBE0F901F90EB
:103BC00018951F93CF93DF93CDB7DEB7AA970FB6A3
:103BD000F894DEBF0FBECDBF89E192E02091F100E5
:103BE000FC012193CF01F2E081329F07B9F70E94D7
:103BF00069198091E80083FF82C080911902909139
:103C00001A029A3008F07BC0E92FF0E0EB5DFE4D20
:103C10000C948E20803881F0823809F070C0809139
:103C20001D028F708093E9008091EB0085FB88274F
:103C300080F91092E90006C0809115029091160259
:103C4000911182609091E800977F9093E8008093B3
:103C5000F1001092F1008091E8008E77F9C088237E
:103C600009F4E6C0823009F04AC080911B0281113C
:103C7000EAC080911D028F7009F441C08093E90071
:103C80002091EB0020FFDFC0933031F48091EB00F6
:103C900080628093EB00D7C09091EB00906190938D
:103CA000EB0021E030E001C0220F8A95EAF7209373
:103CB000EA001092EA008091EB008860EACF81115F
:103CC0001EC010911B021F778091E3008078812B2A
:103CD0008093E3008091E800877F8093E8000E9452
:103CE000FE1B8091E80080FFFCCF8091E30080689C
:103CF0008093E30082E0111183E0809318028091A9
:103D0000E80083FF0AC08091E800877F8093E80085
:103D10008091EB0080628093EB00AA960FB6F89436
:103D2000DEBF0FBECDBFDF91CF911F9108958058A8
:103D3000823028F780911B0290911C028C3D23E079
:103D40009207A1F583E08A838AE289834FB7F894CA
:103D5000DE01139620E03EE051E2E32FF0E05093C5
:103D60005700E49120FF03C0E295EF703F5FEF70D2
:103D70008E2F90E0EA30C0F0C7968D939D932F5F11
:103D8000243159F74FBF8091E800877F8093E80086
:103D90006AE270E0CE0101960E940D1B8091E8005E
:103DA0008B778093E800ABCFC096E7CFAE014F5F33
:103DB0005F4F60911D020E94511ABC01892B09F4CA
:103DC0009ECF9091E800977F9093E80089819A8137
:103DD0000E946B1BE3CF803809F091CF8091E800FF
:103DE000877F8093E800809114028093F10033CFA5
:103DF000811185CF90911B02923008F080CF809185
:103E0000E800877F8093E800909314020E94FE1BD5
:103E100080911402882311F084E005C08091E300B2
:103E200087FDFACF81E0809318020E94551967CF71
:103E300080911B02813009F062CF81E0933009F05C
:103E400080E0809316021092E9008091E800877F5D
:103E50008093E8000E94FE1B52CF0895CF9380917B
:103E600018028823A1F0C091E900CF709091EC0076
:103E7000892F817090FD80E8C82B1092E900809115
:103E8000E80083FD0E94E11DCF70C093E900CF914F
:103E900008950E94501F6894B1110C94DF1F08957B
:103EA0000E94C41F88F09F5798F0B92F9927B751E7
:103EB000B0F0E1F0660F771F881F991F1AF0BA95CE
:103EC000C9F714C0B13091F00E94DE1FB1E008952F
:103ED0000C94DE1F672F782F8827B85F39F0B93F21
:103EE000CCF3869577956795B395D9F73EF4909581
:103EF0008095709561957F4F8F4F9F4F0895E894FF
:103F000009C097FB3EF490958095709561957F4F21
:103F10008F4F9F4F9923A9F0F92F96E9BB279395CF
:103F2000F695879577956795B795F111F8CFFAF4DF
:103F3000BB0F11F460FF1BC06F5F7F4F8F4F9F4F10
:103F400016C0882311F096E911C0772321F09EE86E
:103F5000872F762F05C0662371F096E8862F70E0D4
:103F600060E02AF09A95660F771F881FDAF7880FAE
:103F70009695879597F9089557FD9058440F551FCA
:103F800059F05F3F71F04795880F97FB991F61F0DB
:103F90009F3F79F087950895121613061406551F52
:103FA000F2CF4695F1DF08C0161617061806991FBE
:103FB000F1CF86957105610508940895E894BB27B3
:103FC00066277727CB0197F908950E94F81F0C9474
:103FD00069200E945B2038F00E94622020F0952327
:103FE00011F00C9452200C94582011240C94DF1FD3
:103FF0000E94BC1F70F3959FC1F3950F50E0551FB1
:10400000629FF001729FBB27F00DB11D639FAA272D
:10401000F00DB11DAA1F649F6627B00DA11D661F7C
:10402000829F2227B00DA11D621F739FB00DA11D9D
:10403000621F839FA00D611D221F749F3327A00D57
:10404000611D231F849F600D211D822F762F6A2FF3
:1040500011249F5750409AF0F1F088234AF0EE0F58
:10406000FF1FBB1F661F771F881F91505040A9F785
:104070009E3F510580F00C9452200C94DF1F5F3F4F
:10408000E4F3983ED4F3869577956795B795F795C1
:10409000E7959F5FC1F7FE2B880F911D9695879539
:1040A00097F9089597F99F6780E870E060E00895B8
:1040B0009FEF80EC089500240A9416161706180640
:1040C0000906089500240A9412161306140605061C
:1040D0000895092E0394000C11F4882352F0BB0FAD
:1040E00040F4BF2B11F460FF04C06F5F7F4F8F4F10
:1040F0009F4F089597FB072E16F4009407D077FD85
:1041000009D00E94942007FC05D03EF4909581953B
:104110009F4F0895709561957F4F0895EE0FFF1F93
:104120000590F491E02D0994AA1BBB1B51E107C037
:10413000AA1FBB1FA617B70710F0A61BB70B881F37
:10414000991F5A95A9F780959095BC01CD010895C6
:10415000F999FECF92BD81BDF89A992780B508954F
:10416000A8E1B0E042E050E00C94D020262FF9996D
:10417000FECF92BD81BDF89A019700B4021639F0C6
:104180001FBA20BD0FB6F894FA9AF99A0FBE089597
:104190000196272F0E94B7200C94B620DC01CB019A
:1041A000FC01F999FECF06C0F2BDE1BDF89A319647
:1041B00000B40D9241505040B8F70895F894FFCFE5
:1041C0006B0477047B047F04830487048B048F04CF
:1041D000930497049B049F04A304A704AB04AF04B7
:1041E000B304B704ED0AED0A3D0B3D0B7F0B9B0BAF
:1041F0001A0B1A0BA60B1A0B3E0C3E0C9C0C1A0B3E
:104200001A0BA50C480C480C480C480C480C480CE0
:10421000480C480C480C480C480C480C480C480CFE
:10422000480C480C550C630C6A0C710C7B0C070D88
:10423000070D100D100D120D100D100D100D070DA6
:10424000070D170D100D100D170D0A1E2F1E7F1EC6
:0E4250002F1E7F1E5F1E971E7F1EEB1EF81E88
:10425E00BE012808140A321E5E18F018CB189518E5
:10426E006118013534C697669436323331F7F6400D
:10427E004D363997064A061406DB056E058705A0EE
:04428E0005B9050069
:00000001FF
